{
  "contractName": "movie_publish",
  "abi": [
    {
      "anonymous": false,
      "inputs": [
        {
          "indexed": false,
          "name": "sender",
          "type": "address"
        },
        {
          "indexed": false,
          "name": "movieOwner",
          "type": "address"
        }
      ],
      "name": "MovieTokenPurchased",
      "type": "event"
    },
    {
      "anonymous": false,
      "inputs": [
        {
          "indexed": false,
          "name": "movieName",
          "type": "string"
        },
        {
          "indexed": false,
          "name": "tokenOwner",
          "type": "address"
        },
        {
          "indexed": false,
          "name": "movieHash",
          "type": "string"
        }
      ],
      "name": "HashReadyToPublish",
      "type": "event"
    },
    {
      "anonymous": false,
      "inputs": [
        {
          "indexed": false,
          "name": "id",
          "type": "uint256"
        },
        {
          "indexed": false,
          "name": "movieOwner",
          "type": "address"
        },
        {
          "indexed": false,
          "name": "name",
          "type": "string"
        }
      ],
      "name": "MovieAdded",
      "type": "event"
    },
    {
      "constant": false,
      "inputs": [
        {
          "name": "id",
          "type": "uint256"
        },
        {
          "name": "_ownerPkey",
          "type": "string"
        }
      ],
      "name": "buyMovieToken",
      "outputs": [],
      "payable": true,
      "stateMutability": "payable",
      "type": "function"
    },
    {
      "constant": false,
      "inputs": [
        {
          "name": "_name",
          "type": "string"
        },
        {
          "name": "_link",
          "type": "string"
        },
        {
          "name": "_price",
          "type": "uint256"
        }
      ],
      "name": "createMovie",
      "outputs": [],
      "payable": false,
      "stateMutability": "nonpayable",
      "type": "function"
    },
    {
      "constant": false,
      "inputs": [
        {
          "name": "_id",
          "type": "uint256"
        },
        {
          "name": "_hash",
          "type": "string"
        }
      ],
      "name": "addHashToMovieToken",
      "outputs": [],
      "payable": false,
      "stateMutability": "nonpayable",
      "type": "function"
    },
    {
      "constant": true,
      "inputs": [],
      "name": "getMovieList",
      "outputs": [
        {
          "components": [
            {
              "name": "id",
              "type": "uint256"
            },
            {
              "name": "name",
              "type": "string"
            },
            {
              "name": "link",
              "type": "string"
            },
            {
              "name": "price",
              "type": "uint256"
            }
          ],
          "name": "",
          "type": "tuple[]"
        }
      ],
      "payable": false,
      "stateMutability": "view",
      "type": "function"
    },
    {
      "constant": true,
      "inputs": [
        {
          "name": "id",
          "type": "uint256"
        }
      ],
      "name": "getMovieDetails",
      "outputs": [
        {
          "components": [
            {
              "name": "id",
              "type": "uint256"
            },
            {
              "name": "name",
              "type": "string"
            },
            {
              "name": "link",
              "type": "string"
            },
            {
              "name": "price",
              "type": "uint256"
            }
          ],
          "name": "",
          "type": "tuple"
        }
      ],
      "payable": false,
      "stateMutability": "view",
      "type": "function"
    }
  ],
  "bytecode": "0x608060405234801561001057600080fd5b50611505806100206000396000f30060806040526004361061006d576000357c0100000000000000000000000000000000000000000000000000000000900463ffffffff1680632c7b2de41461007257806357a3106b1461009b5780635c7b14c1146100b7578063c0a380ea146100f4578063c3a123c61461011f575b600080fd5b34801561007e57600080fd5b5061009960048036036100949190810190611008565b610148565b005b6100b560048036036100b09190810190611008565b61022a565b005b3480156100c357600080fd5b506100de60048036036100d99190810190610fdf565b6102d3565b6040516100eb919061133e565b60405180910390f35b34801561010057600080fd5b5061010961047c565b60405161011691906112d7565b60405180910390f35b34801561012b57600080fd5b5061014660048036036101419190810190610f60565b610634565b005b6000600860008481526020019081526020016000205490508160048281548110151561017057fe5b90600052602060002090600702016006019080519060200190610194929190610d50565b507f077cf14e51d327ccdb8fbb8113548108e70fb3b042be8bf19b1efb61b95a61b46004828154811015156101c557fe5b90600052602060002090600702016001016001016009600086815260200190815260200160002060009054906101000a900473ffffffffffffffffffffffffffffffffffffffff168460405161021d939291906112f9565b60405180910390a1505050565b60003490506102388361082e565b156102625761024783826108aa565b1561026157610257338484610900565b61026083610c1e565b5b5b7fc0550d2258d4142b9c947baf9e4748dc318d5ac1ed092d252f34cd0547e2e072336005600086815260200190815260200160002060009054906101000a900473ffffffffffffffffffffffffffffffffffffffff166040516102c69291906112ae565b60405180910390a1505050565b6102db610dd0565b60006006600084815260200190815260200160002054905060038181548110151561030257fe5b90600052602060002090600402016080604051908101604052908160008201548152602001600182018054600181600116156101000203166002900480601f0160208091040260200160405190810160405280929190818152602001828054600181600116156101000203166002900480156103bf5780601f10610394576101008083540402835291602001916103bf565b820191906000526020600020905b8154815290600101906020018083116103a257829003601f168201915b50505050508152602001600282018054600181600116156101000203166002900480601f0160208091040260200160405190810160405280929190818152602001828054600181600116156101000203166002900480156104615780601f1061043657610100808354040283529160200191610461565b820191906000526020600020905b81548152906001019060200180831161044457829003601f168201915b50505050508152602001600382015481525050915050919050565b60606003805480602002602001604051908101604052809291908181526020016000905b8282101561062b57838290600052602060002090600402016080604051908101604052908160008201548152602001600182018054600181600116156101000203166002900480601f0160208091040260200160405190810160405280929190818152602001828054600181600116156101000203166002900480156105675780601f1061053c57610100808354040283529160200191610567565b820191906000526020600020905b81548152906001019060200180831161054a57829003601f168201915b50505050508152602001600282018054600181600116156101000203166002900480601f0160208091040260200160405190810160405280929190818152602001828054600181600116156101000203166002900480156106095780601f106105de57610100808354040283529160200191610609565b820191906000526020600020905b8154815290600101906020018083116105ec57829003601f168201915b50505050508152602001600382015481525050815260200190600101906104a0565b50505050905090565b61063c610dd0565b61064533610c9b565b15156106b25760023390806001815401808255809150509060018203906000526020600020016000909192909190916101000a81548173ffffffffffffffffffffffffffffffffffffffff021916908373ffffffffffffffffffffffffffffffffffffffff160217905550505b6001600081548092919060010191905055506001548160000181815250508381602001819052508281604001819052508181606001818152505060038190806001815401808255809150509060018203906000526020600020906004020160009091929091909150600082015181600001556020820151816001019080519060200190610740929190610df9565b50604082015181600201908051906020019061075d929190610df9565b506060820151816003015550505060016003805490500360066000836000015181526020019081526020016000208190555033600560008360000151815260200190815260200160002060006101000a81548173ffffffffffffffffffffffffffffffffffffffff021916908373ffffffffffffffffffffffffffffffffffffffff1602179055507f79fe0d0fc9d0e6b7ef6d77bb256fb06879bea6c65e2ee68c4cf0f5f3d1a8977b816000015133836020015160405161082093929190611360565b60405180910390a150505050565b60008073ffffffffffffffffffffffffffffffffffffffff166005600084815260200190815260200160002060009054906101000a900473ffffffffffffffffffffffffffffffffffffffff1673ffffffffffffffffffffffffffffffffffffffff1614156108a057600090506108a5565b600190505b919050565b600080600360066000868152602001908152602001600020548154811015156108cf57fe5b9060005260206000209060040201905080600301548310156108f457600091506108f9565b600191505b5092915050565b610908610e79565b600080600081548092919060010191905055506000548260000181815250506003600660008681526020019081526020016000205481548110151561094957fe5b90600052602060002090600402019050806080604051908101604052908160008201548152602001600182018054600181600116156101000203166002900480601f016020809104026020016040519081016040528092919081815260200182805460018160011615610100020316600290048015610a095780601f106109de57610100808354040283529160200191610a09565b820191906000526020600020905b8154815290600101906020018083116109ec57829003601f168201915b50505050508152602001600282018054600181600116156101000203166002900480601f016020809104026020016040519081016040528092919081815260200182805460018160011615610100020316600290048015610aab5780601f10610a8057610100808354040283529160200191610aab565b820191906000526020600020905b815481529060010190602001808311610a8e57829003601f168201915b5050505050815260200160038201548152505082602001819052508282604001819052506004829080600181540180825580915050906001820390600052602060002090600702016000909192909190915060008201518160000155602082015181600101600082015181600001556020820151816001019080519060200190610b36929190610df9565b506040820151816002019080519060200190610b53929190610df9565b506060820151816003015550506040820151816005019080519060200190610b7c929190610df9565b506060820151816006019080519060200190610b99929190610df9565b5050505084600960008460000151815260200190815260200160002060006101000a81548173ffffffffffffffffffffffffffffffffffffffff021916908373ffffffffffffffffffffffffffffffffffffffff1602179055506001600480549050036008600084600001518152602001908152602001600020819055505050505050565b6005600082815260200190815260200160002060009054906101000a900473ffffffffffffffffffffffffffffffffffffffff1673ffffffffffffffffffffffffffffffffffffffff166108fc349081150290604051600060405180830381858888f19350505050158015610c97573d6000803e3d6000fd5b5050565b600080600090505b600280549050811015610d2f578273ffffffffffffffffffffffffffffffffffffffff16600282815481101515610cd657fe5b9060005260206000200160009054906101000a900473ffffffffffffffffffffffffffffffffffffffff1673ffffffffffffffffffffffffffffffffffffffff161415610d2257610d2f565b8080600101915050610ca3565b600280549050811415610d455760009150610d4a565b600191505b50919050565b828054600181600116156101000203166002900490600052602060002090601f016020900481019282601f10610d9157805160ff1916838001178555610dbf565b82800160010185558215610dbf579182015b82811115610dbe578251825591602001919060010190610da3565b5b509050610dcc9190610ea8565b5090565b608060405190810160405280600081526020016060815260200160608152602001600081525090565b828054600181600116156101000203166002900490600052602060002090601f016020900481019282601f10610e3a57805160ff1916838001178555610e68565b82800160010185558215610e68579182015b82811115610e67578251825591602001919060010190610e4c565b5b509050610e759190610ea8565b5090565b60e06040519081016040528060008152602001610e94610ecd565b815260200160608152602001606081525090565b610eca91905b80821115610ec6576000816000905550600101610eae565b5090565b90565b608060405190810160405280600081526020016060815260200160608152602001600081525090565b600082601f8301121515610f0957600080fd5b8135610f1c610f17826113cb565b61139e565b91508082526020830160208301858383011115610f3857600080fd5b610f43838284611478565b50505092915050565b6000610f58823561146e565b905092915050565b600080600060608486031215610f7557600080fd5b600084013567ffffffffffffffff811115610f8f57600080fd5b610f9b86828701610ef6565b935050602084013567ffffffffffffffff811115610fb857600080fd5b610fc486828701610ef6565b9250506040610fd586828701610f4c565b9150509250925092565b600060208284031215610ff157600080fd5b6000610fff84828501610f4c565b91505092915050565b6000806040838503121561101b57600080fd5b600061102985828601610f4c565b925050602083013567ffffffffffffffff81111561104657600080fd5b61105285828601610ef6565b9150509250929050565b61106581611444565b82525050565b600061107682611416565b8084526020840193508360208202850161108f856113f7565b60005b848110156110c85783830388526110aa838351611235565b92506110b582611437565b9150602088019750600181019050611092565b508196508694505050505092915050565b60006110e48261142c565b8084526110f8816020860160208601611487565b611101816114ba565b602085010191505092915050565b600061111a82611421565b80845261112e816020860160208601611487565b611137816114ba565b602085010191505092915050565b6000815460018116600081146111625760018114611182576111c3565b607f600283041680865260ff1983166020870152604086019350506111c3565b6002820480865260208601955061119885611404565b60005b828110156111ba5781548189015260018201915060208101905061119b565b80880195505050505b505092915050565b60006080830160008301516111e3600086018261129f565b50602083015184820360208601526111fb828261110f565b91505060408301518482036040860152611215828261110f565b915050606083015161122a606086018261129f565b508091505092915050565b600060808301600083015161124d600086018261129f565b5060208301518482036020860152611265828261110f565b9150506040830151848203604086015261127f828261110f565b9150506060830151611294606086018261129f565b508091505092915050565b6112a881611464565b82525050565b60006040820190506112c3600083018561105c565b6112d0602083018461105c565b9392505050565b600060208201905081810360008301526112f1818461106b565b905092915050565b600060608201905081810360008301526113138186611145565b9050611322602083018561105c565b818103604083015261133481846110d9565b9050949350505050565b6000602082019050818103600083015261135881846111cb565b905092915050565b6000606082019050611375600083018661129f565b611382602083018561105c565b8181036040830152611394818461110f565b9050949350505050565b6000604051905081810181811067ffffffffffffffff821117156113c157600080fd5b8060405250919050565b600067ffffffffffffffff8211156113e257600080fd5b601f19601f8301169050602081019050919050565b6000602082019050919050565b60008160005260206000209050919050565b600081519050919050565b600081519050919050565b600081519050919050565b6000602082019050919050565b600073ffffffffffffffffffffffffffffffffffffffff82169050919050565b6000819050919050565b6000819050919050565b82818337600083830152505050565b60005b838110156114a557808201518184015260208101905061148a565b838111156114b4576000848401525b50505050565b6000601f19601f83011690509190505600a265627a7a72305820997a54538b08318771f8a078a52b1ccd023c150c1f742bc4b4dd08d81c88f6886c6578706572696d656e74616cf50037",
  "source": "//solium-disable linebreak-style\r\npragma solidity ^0.4.23;\r\npragma experimental ABIEncoderV2;\r\n\r\ncontract movie_publish {\r\n    uint256 movieTokenCounter;\r\n    uint256 movieCounter; \r\n    address[] owners_list;\r\n\r\n    struct file {\r\n        uint256 id;\r\n        string name;\r\n        string link;\r\n        uint256 price;\r\n    }\r\n    struct movietoken{\r\n        uint256 id;\r\n        file movie;\r\n        string ownerPkey;\r\n        string movieHash;\r\n    }\r\n    file[] files_list;\r\n    movietoken[] movieTokens_list;\r\n    mapping (uint256 => address) file_to_owner;\r\n    mapping (uint256 => uint) file_to_index;\r\n    mapping (address => uint) owner_to_index;\r\n    mapping (uint256 => uint) movietoken_to_index;\r\n    mapping (uint256 => address) movietoken_to_owner;\r\n\r\n    //events\r\n    event MovieTokenPurchased(address sender, address movieOwner);\r\n    event HashReadyToPublish (string movieName, address tokenOwner, string movieHash);\r\n    event MovieAdded (uint256 id, address movieOwner, string name);\r\n\r\n    function buyMovieToken(uint256 id, string _ownerPkey) public payable{\r\n        uint256 weiAmount = msg.value;\r\n        if (_validMovie(id)){\r\n            if(_validAmount(id, weiAmount)){\r\n                _createMovieToken(msg.sender, id, _ownerPkey);\r\n                _forwardFunds(id);\r\n            }\r\n        }\r\n        emit MovieTokenPurchased(msg.sender, file_to_owner[id]);\r\n    }\r\n\r\n    function createMovie(string _name, string _link, uint256 _price) public {\r\n        if (!_exist(msg.sender)) owners_list.push(msg.sender);\r\n        file memory movie;\r\n        movieCounter++;\r\n        movie.id = movieCounter;\r\n        movie.name = _name;\r\n        movie.link = _link;\r\n        movie.price = _price;\r\n        files_list.push(movie);\r\n        file_to_index[movie.id] = files_list.length-1;\r\n        file_to_owner[movie.id] = msg.sender;\r\n        emit MovieAdded(movie.id, msg.sender, movie.name);\r\n\r\n    }\r\n\r\n    function addHashToMovieToken (uint256 _id, string _hash) public {\r\n        uint index = movietoken_to_index[_id];\r\n        movieTokens_list[index].movieHash = _hash;\r\n        emit HashReadyToPublish(\r\n            movieTokens_list[index].movie.name,\r\n            movietoken_to_owner[_id],\r\n            _hash\r\n        );\r\n    }\r\n\r\n    function getMovieList () public view returns (file[]){\r\n        return files_list;\r\n    }\r\n\r\n    function getMovieDetails (uint256 id) public view returns (file){\r\n        uint index = file_to_index[id];\r\n        return files_list[index];\r\n    }\r\n\r\n    function _exist(address owner) private view returns(bool) { \r\n        for (uint i = 0; i < owners_list.length; i++){\r\n            if (owners_list[i] == owner) break;\r\n        }\r\n        if (i == owners_list.length) return false;\r\n        return true;\r\n    }\r\n\r\n    function _validMovie(uint256 id) private view returns(bool){\r\n        if (file_to_owner[id] == address(0)) return false;\r\n        return true;\r\n    }    \r\n\r\n    function _validAmount(uint256 id, uint256 weiAmount) private view returns(bool){\r\n        file movieFile = files_list[file_to_index[id]];\r\n        if (weiAmount < movieFile.price) return false;\r\n        return true;\r\n    }\r\n\r\n    function _createMovieToken(address sender, uint256 id, string ownerPkey) private {\r\n        movietoken memory token;\r\n        movieTokenCounter++;\r\n        token.id = movieTokenCounter;\r\n        file movieFile = files_list[file_to_index[id]];\r\n        token.movie = movieFile;\r\n        token.ownerPkey = ownerPkey;\r\n        movieTokens_list.push(token);\r\n        movietoken_to_owner[token.id] = sender;\r\n        movietoken_to_index[token.id] = movieTokens_list.length - 1;\r\n    }    \r\n\r\n    function _forwardFunds(uint256 id) private {\r\n        file_to_owner[id].transfer(msg.value);\r\n    }\r\n     \r\n}\r\n",
  "sourcePath": "D:\\ÉTS 2017-2018\\Fall session 2018\\INSE6630\\Project\\Decentralized_Movie_Publish\\contracts\\movie_publish.sol",
  "compiler": {
    "name": "solc",
    "version": "0.4.24+commit.e67f0147.Emscripten.clang"
  },
  "schemaVersion": "2.0.1",
  "updatedAt": "2018-11-19T00:45:40.053Z"
}