{
  "contractName": "movie_publish",
  "abi": [
    {
      "anonymous": false,
      "inputs": [
        {
          "indexed": false,
          "name": "sender",
          "type": "address"
        },
        {
          "indexed": false,
          "name": "id",
          "type": "uint256"
        }
      ],
      "name": "MovieTokenPurchased",
      "type": "event"
    },
    {
      "anonymous": false,
      "inputs": [
        {
          "indexed": false,
          "name": "movieName",
          "type": "string"
        },
        {
          "indexed": false,
          "name": "tokenOwner",
          "type": "address"
        },
        {
          "indexed": false,
          "name": "movieHash",
          "type": "string"
        }
      ],
      "name": "HashReadyToPublish",
      "type": "event"
    },
    {
      "anonymous": false,
      "inputs": [
        {
          "indexed": false,
          "name": "id",
          "type": "uint256"
        },
        {
          "indexed": false,
          "name": "movieOwner",
          "type": "address"
        },
        {
          "indexed": false,
          "name": "name",
          "type": "string"
        }
      ],
      "name": "MovieAdded",
      "type": "event"
    },
    {
      "constant": false,
      "inputs": [
        {
          "name": "id",
          "type": "uint256"
        },
        {
          "name": "_ownerPkey",
          "type": "string"
        }
      ],
      "name": "buyMovieToken",
      "outputs": [],
      "payable": true,
      "stateMutability": "payable",
      "type": "function"
    },
    {
      "constant": false,
      "inputs": [
        {
          "name": "_name",
          "type": "string"
        },
        {
          "name": "_link",
          "type": "string"
        },
        {
          "name": "_price",
          "type": "uint256"
        }
      ],
      "name": "createMovie",
      "outputs": [],
      "payable": false,
      "stateMutability": "nonpayable",
      "type": "function"
    },
    {
      "constant": false,
      "inputs": [
        {
          "name": "_id",
          "type": "uint256"
        },
        {
          "name": "_hash",
          "type": "string"
        }
      ],
      "name": "addHashToMovieToken",
      "outputs": [],
      "payable": false,
      "stateMutability": "nonpayable",
      "type": "function"
    },
    {
      "constant": true,
      "inputs": [],
      "name": "getOwnMovies",
      "outputs": [
        {
          "name": "",
          "type": "string[]"
        }
      ],
      "payable": false,
      "stateMutability": "view",
      "type": "function"
    },
    {
      "constant": true,
      "inputs": [],
      "name": "getMovieList",
      "outputs": [
        {
          "name": "",
          "type": "string[]"
        }
      ],
      "payable": false,
      "stateMutability": "view",
      "type": "function"
    },
    {
      "constant": true,
      "inputs": [
        {
          "name": "name",
          "type": "string"
        }
      ],
      "name": "getMovieDetails",
      "outputs": [
        {
          "name": "_id",
          "type": "uint256"
        },
        {
          "name": "_name",
          "type": "string"
        },
        {
          "name": "_link",
          "type": "string"
        },
        {
          "name": "_price",
          "type": "uint256"
        },
        {
          "name": "_downloads",
          "type": "uint256"
        }
      ],
      "payable": false,
      "stateMutability": "view",
      "type": "function"
    }
  ],
  "bytecode": "0x608060405234801561001057600080fd5b50611aa6806100206000396000f300608060405260043610610078576000357c0100000000000000000000000000000000000000000000000000000000900463ffffffff1680632c7b2de41461007d57806357a3106b146100a6578063c0a380ea146100c2578063c3a123c6146100ed578063d5f421c114610116578063f22cdee814610157575b600080fd5b34801561008957600080fd5b506100a4600480360361009f9190810190611590565b610182565b005b6100c060048036036100bb9190810190611590565b610264565b005b3480156100ce57600080fd5b506100d7610380565b6040516100e491906117f9565b60405180910390f35b3480156100f957600080fd5b50610114600480360361010f9190810190611511565b610566565b005b34801561012257600080fd5b5061013d600480360361013891908101906114d0565b6107e6565b60405161014e9594939291906118de565b60405180910390f35b34801561016357600080fd5b5061016c6109e2565b60405161017991906117f9565b60405180910390f35b600060096000848152602001908152602001600020549050816004828154811015156101aa57fe5b906000526020600020906008020160070190805190602001906101ce92919061122a565b507f077cf14e51d327ccdb8fbb8113548108e70fb3b042be8bf19b1efb61b95a61b46004828154811015156101ff57fe5b9060005260206000209060080201600101600101600a600086815260200190815260200160002060009054906101000a900473ffffffffffffffffffffffffffffffffffffffff16846040516102579392919061181b565b60405180910390a1505050565b600034905061027283610ce0565b15610340576102818382610d5c565b1561030057610291338484610db2565b61029a836110f8565b7f7c4c62aed8eacd079f08e812d7d5a637ec67dab845c1be0279e485013e2c4c533360046001600480549050038154811015156102d357fe5b9060005260206000209060080201600001546040516102f39291906117d0565b60405180910390a161033b565b6040517f08c379a000000000000000000000000000000000000000000000000000000000815260040161033290611860565b60405180910390fd5b61037b565b6040517f08c379a000000000000000000000000000000000000000000000000000000000815260040161037290611880565b60405180910390fd5b505050565b6060600080600090505b60038054905081101561040d57816003828154811015156103a757fe5b906000526020600020906005020160010190806001815401808255809150509060018203906000526020600020016000909192909190915090805460018160011615610100020316600290046103fe9291906112aa565b5050808060010191505061038a565b81600360016003805490500381548110151561042557fe5b9060005260206000209060050201600101908060018154018082558091505090600182039060005260206000200160009091929091909150908054600181600116156101000203166002900461047c9291906112aa565b505081805480602002602001604051908101604052809291908181526020016000905b8282101561055b578382906000526020600020018054600181600116156101000203166002900480601f0160208091040260200160405190810160405280929190818152602001828054600181600116156101000203166002900480156105475780601f1061051c57610100808354040283529160200191610547565b820191906000526020600020905b81548152906001019060200180831161052a57829003601f168201915b50505050508152602001906001019061049f565b505050509250505090565b61056e611331565b61057733611175565b15156105e45760023390806001815401808255809150509060018203906000526020600020016000909192909190916101000a81548173ffffffffffffffffffffffffffffffffffffffff021916908373ffffffffffffffffffffffffffffffffffffffff160217905550505b6001600081548092919060010191905055506001548160000181815250508381602001819052508281604001819052508181606001818152505060038190806001815401808255809150509060018203906000526020600020906005020160009091929091909150600082015181600001556020820151816001019080519060200190610672929190611361565b50604082015181600201908051906020019061068f929190611361565b506060820151816003015560808201518160040155505050600160038054905003600660008360000151815260200190815260200160002081905550600160038054905003600782602001516040518082805190602001908083835b60208310151561071057805182526020820191506020810190506020830392506106eb565b6001836020036101000a03801982511681845116808217855250505050505090500191505090815260200160405180910390208190555033600560008360000151815260200190815260200160002060006101000a81548173ffffffffffffffffffffffffffffffffffffffff021916908373ffffffffffffffffffffffffffffffffffffffff1602179055507f79fe0d0fc9d0e6b7ef6d77bb256fb06879bea6c65e2ee68c4cf0f5f3d1a8977b81600001513383602001516040516107d8939291906118a0565b60405180910390a150505050565b60006060806000806000806007886040518082805190602001908083835b6020831015156108295780518252602082019150602081019050602083039250610804565b6001836020036101000a038019825116818451168082178552505050505050905001915050908152602001604051809103902054915060038281548110151561086e57fe5b906000526020600020906005020190508060000154816001018260020183600301548460040154838054600181600116156101000203166002900480601f01602080910402602001604051908101604052809291908181526020018280546001816001161561010002031660029004801561092a5780601f106108ff5761010080835404028352916020019161092a565b820191906000526020600020905b81548152906001019060200180831161090d57829003601f168201915b50505050509350828054600181600116156101000203166002900480601f0160208091040260200160405190810160405280929190818152602001828054600181600116156101000203166002900480156109c65780601f1061099b576101008083540402835291602001916109c6565b820191906000526020600020905b8154815290600101906020018083116109a957829003601f168201915b5050505050925096509650965096509650505091939590929450565b6060600080600090505b600380549050811015610af7573373ffffffffffffffffffffffffffffffffffffffff1660056000600384815481101515610a2357fe5b906000526020600020906005020160000154815260200190815260200160002060009054906101000a900473ffffffffffffffffffffffffffffffffffffffff1673ffffffffffffffffffffffffffffffffffffffff161415610aea5781600382815481101515610a9057fe5b90600052602060002090600502016001019080600181540180825580915050906001820390600052602060002001600090919290919091509080546001816001161561010002031660029004610ae79291906112aa565b50505b80806001019150506109ec565b3373ffffffffffffffffffffffffffffffffffffffff16600560006003600160038054905003815481101515610b2957fe5b906000526020600020906005020160000154815260200190815260200160002060009054906101000a900473ffffffffffffffffffffffffffffffffffffffff1673ffffffffffffffffffffffffffffffffffffffff161415610bf857816003600160038054905003815481101515610b9e57fe5b90600052602060002090600502016001019080600181540180825580915050906001820390600052602060002001600090919290919091509080546001816001161561010002031660029004610bf59291906112aa565b50505b81805480602002602001604051908101604052809291908181526020016000905b82821015610cd5578382906000526020600020018054600181600116156101000203166002900480601f016020809104026020016040519081016040528092919081815260200182805460018160011615610100020316600290048015610cc15780601f10610c9657610100808354040283529160200191610cc1565b820191906000526020600020905b815481529060010190602001808311610ca457829003601f168201915b505050505081526020019060010190610c19565b505050509250505090565b60008073ffffffffffffffffffffffffffffffffffffffff166005600084815260200190815260200160002060009054906101000a900473ffffffffffffffffffffffffffffffffffffffff1673ffffffffffffffffffffffffffffffffffffffff161415610d525760009050610d57565b600190505b919050565b60008060036006600086815260200190815260200160002054815481101515610d8157fe5b906000526020600020906005020190508060030154831015610da65760009150610dab565b600191505b5092915050565b610dba6113e1565b6000806000815480929190600101919050555060005482600001818152505060036006600086815260200190815260200160002054815481101515610dfb57fe5b9060005260206000209060050201905080600401600081548092919060010191905055508060a0604051908101604052908160008201548152602001600182018054600181600116156101000203166002900480601f016020809104026020016040519081016040528092919081815260200182805460018160011615610100020316600290048015610ecf5780601f10610ea457610100808354040283529160200191610ecf565b820191906000526020600020905b815481529060010190602001808311610eb257829003601f168201915b50505050508152602001600282018054600181600116156101000203166002900480601f016020809104026020016040519081016040528092919081815260200182805460018160011615610100020316600290048015610f715780601f10610f4657610100808354040283529160200191610f71565b820191906000526020600020905b815481529060010190602001808311610f5457829003601f168201915b505050505081526020016003820154815260200160048201548152505082602001819052508282604001819052506004829080600181540180825580915050906001820390600052602060002090600802016000909192909190915060008201518160000155602082015181600101600082015181600001556020820151816001019080519060200190611006929190611361565b506040820151816002019080519060200190611023929190611361565b50606082015181600301556080820151816004015550506040820151816006019080519060200190611056929190611361565b506060820151816007019080519060200190611073929190611361565b5050505084600a60008460000151815260200190815260200160002060006101000a81548173ffffffffffffffffffffffffffffffffffffffff021916908373ffffffffffffffffffffffffffffffffffffffff1602179055506001600480549050036009600084600001518152602001908152602001600020819055505050505050565b6005600082815260200190815260200160002060009054906101000a900473ffffffffffffffffffffffffffffffffffffffff1673ffffffffffffffffffffffffffffffffffffffff166108fc349081150290604051600060405180830381858888f19350505050158015611171573d6000803e3d6000fd5b5050565b600080600090505b600280549050811015611209578273ffffffffffffffffffffffffffffffffffffffff166002828154811015156111b057fe5b9060005260206000200160009054906101000a900473ffffffffffffffffffffffffffffffffffffffff1673ffffffffffffffffffffffffffffffffffffffff1614156111fc57611209565b808060010191505061117d565b60028054905081141561121f5760009150611224565b600191505b50919050565b828054600181600116156101000203166002900490600052602060002090601f016020900481019282601f1061126b57805160ff1916838001178555611299565b82800160010185558215611299579182015b8281111561129857825182559160200191906001019061127d565b5b5090506112a69190611411565b5090565b828054600181600116156101000203166002900490600052602060002090601f016020900481019282601f106112e35780548555611320565b8280016001018555821561132057600052602060002091601f016020900482015b8281111561131f578254825591600101919060010190611304565b5b50905061132d9190611411565b5090565b60a06040519081016040528060008152602001606081526020016060815260200160008152602001600081525090565b828054600181600116156101000203166002900490600052602060002090601f016020900481019282601f106113a257805160ff19168380011785556113d0565b828001600101855582156113d0579182015b828111156113cf5782518255916020019190600101906113b4565b5b5090506113dd9190611411565b5090565b61010060405190810160405280600081526020016113fd611436565b815260200160608152602001606081525090565b61143391905b8082111561142f576000816000905550600101611417565b5090565b90565b60a06040519081016040528060008152602001606081526020016060815260200160008152602001600081525090565b600082601f830112151561147957600080fd5b813561148c6114878261196c565b61193f565b915080825260208301602083018583830111156114a857600080fd5b6114b3838284611a19565b50505092915050565b60006114c88235611a0f565b905092915050565b6000602082840312156114e257600080fd5b600082013567ffffffffffffffff8111156114fc57600080fd5b61150884828501611466565b91505092915050565b60008060006060848603121561152657600080fd5b600084013567ffffffffffffffff81111561154057600080fd5b61154c86828701611466565b935050602084013567ffffffffffffffff81111561156957600080fd5b61157586828701611466565b9250506040611586868287016114bc565b9150509250925092565b600080604083850312156115a357600080fd5b60006115b1858286016114bc565b925050602083013567ffffffffffffffff8111156115ce57600080fd5b6115da85828601611466565b9150509250929050565b6115ed816119e5565b82525050565b60006115fe826119b7565b8084526020840193508360208202850161161785611998565b60005b84811015611650578383038852611632838351611697565b925061163d826119d8565b915060208801975060018101905061161a565b508196508694505050505092915050565b600061166c826119cd565b808452611680816020860160208601611a28565b61168981611a5b565b602085010191505092915050565b60006116a2826119c2565b8084526116b6816020860160208601611a28565b6116bf81611a5b565b602085010191505092915050565b6000815460018116600081146116ea576001811461170a5761174b565b607f600283041680865260ff19831660208701526040860193505061174b565b60028204808652602086019550611720856119a5565b60005b8281101561174257815481890152600182019150602081019050611723565b80880195505050505b505092915050565b6000601882527f496e737566666973616e7420706179656420616d6f756e7400000000000000006020830152604082019050919050565b6000601082527f496e76616c6964204d6f766965204944000000000000000000000000000000006020830152604082019050919050565b6117ca81611a05565b82525050565b60006040820190506117e560008301856115e4565b6117f260208301846117c1565b9392505050565b6000602082019050818103600083015261181381846115f3565b905092915050565b6000606082019050818103600083015261183581866116cd565b905061184460208301856115e4565b81810360408301526118568184611661565b9050949350505050565b6000602082019050818103600083015261187981611753565b9050919050565b600060208201905081810360008301526118998161178a565b9050919050565b60006060820190506118b560008301866117c1565b6118c260208301856115e4565b81810360408301526118d48184611697565b9050949350505050565b600060a0820190506118f360008301886117c1565b81810360208301526119058187611661565b905081810360408301526119198186611661565b905061192860608301856117c1565b61193560808301846117c1565b9695505050505050565b6000604051905081810181811067ffffffffffffffff8211171561196257600080fd5b8060405250919050565b600067ffffffffffffffff82111561198357600080fd5b601f19601f8301169050602081019050919050565b6000602082019050919050565b60008160005260206000209050919050565b600081519050919050565b600081519050919050565b600081519050919050565b6000602082019050919050565b600073ffffffffffffffffffffffffffffffffffffffff82169050919050565b6000819050919050565b6000819050919050565b82818337600083830152505050565b60005b83811015611a46578082015181840152602081019050611a2b565b83811115611a55576000848401525b50505050565b6000601f19601f83011690509190505600a265627a7a72305820addc62dcb318311cc49aa7d01a837735dffaadc36cd4e067c536920359ad16356c6578706572696d656e74616cf50037",
  "source": "//solium-disable linebreak-style\r\npragma solidity ^0.4.23;\r\npragma experimental ABIEncoderV2;\r\n\r\ncontract movie_publish {\r\n    uint256 movieTokenCounter;\r\n    uint256 movieCounter; \r\n    address[] owners_list;\r\n\r\n    struct file {\r\n        uint256 id;\r\n        string name;\r\n        string link;\r\n        uint256 price;\r\n        uint downloads;\r\n    }\r\n    struct movietoken{\r\n        uint256 id;\r\n        file movie;\r\n        string ownerPkey;\r\n        string movieHash;\r\n    }\r\n    file[] files_list;\r\n    movietoken[] movieTokens_list;\r\n    mapping (uint256 => address) file_to_owner;\r\n    mapping (uint256 => uint) file_to_index;\r\n    mapping (string => uint) name_to_index;\r\n    mapping (address => uint) owner_to_index;\r\n    mapping (uint256 => uint) movietoken_to_index;\r\n    mapping (uint256 => address) movietoken_to_owner;\r\n\r\n    //events\r\n    event MovieTokenPurchased(address sender, uint256 id);\r\n    event HashReadyToPublish (string movieName, address tokenOwner, string movieHash);\r\n    event MovieAdded (uint256 id, address movieOwner, string name);\r\n\r\n    function buyMovieToken(uint256 id, string _ownerPkey) public payable{\r\n        uint256 weiAmount = msg.value;\r\n        if (_validMovie(id)){\r\n            if(_validAmount(id, weiAmount)){\r\n                _createMovieToken(msg.sender, id, _ownerPkey);\r\n                _forwardFunds(id);\r\n                emit MovieTokenPurchased(msg.sender, movieTokens_list[movieTokens_list.length-1].id);\r\n            }\r\n            else revert(\"Insuffisant payed amount\");\r\n        }\r\n        else revert (\"Invalid Movie ID\");\r\n        \r\n    }\r\n\r\n    function createMovie(string _name, string _link, uint256 _price) public {\r\n        if (!_exist(msg.sender)) owners_list.push(msg.sender);\r\n        file memory movie;\r\n        movieCounter++;\r\n        movie.id = movieCounter;\r\n        movie.name = _name;\r\n        movie.link = _link;\r\n        movie.price = _price;\r\n        files_list.push(movie);\r\n        file_to_index[movie.id] = files_list.length-1;\r\n        name_to_index[movie.name] = files_list.length-1;\r\n        file_to_owner[movie.id] = msg.sender;\r\n        emit MovieAdded(movie.id, msg.sender, movie.name);\r\n    }\r\n\r\n    function addHashToMovieToken (uint256 _id, string _hash) public {\r\n        uint index = movietoken_to_index[_id];\r\n        movieTokens_list[index].movieHash = _hash;\r\n        emit HashReadyToPublish(\r\n            movieTokens_list[index].movie.name,\r\n            movietoken_to_owner[_id],\r\n            _hash\r\n        );\r\n    }\r\n\r\n    function getOwnMovies () public view returns (string[]) {\r\n        string[] storage moviesNames;\r\n       \r\n        for (uint i = 0; i < files_list.length; i++){\r\n            if (file_to_owner[files_list[i].id] == msg.sender)\r\n            moviesNames.push(files_list[i].name);\r\n        }\r\n        if (file_to_owner[files_list[files_list.length-1].id] == msg.sender)\r\n        moviesNames.push(files_list[files_list.length-1].name);\r\n        return moviesNames;\r\n    }\r\n\r\n    function getMovieList () public view returns (string[]){\r\n        string[] storage moviesNames;\r\n        for (uint i = 0; i < files_list.length; i++)\r\n        moviesNames.push(files_list[i].name);\r\n        moviesNames.push(files_list[files_list.length-1].name);\r\n        return moviesNames;\r\n    }\r\n\r\n    function getMovieDetails (string name) public view \r\n    returns (uint256 _id,\r\n             string _name,\r\n             string _link,\r\n             uint256 _price,\r\n             uint _downloads) {\r\n        uint index = name_to_index[name];\r\n        file movie = files_list[index];\r\n        return (movie.id, movie.name, movie.link, movie.price, movie.downloads);\r\n    }\r\n\r\n    function _exist(address owner) private view returns(bool) { \r\n        for (uint i = 0; i < owners_list.length; i++){\r\n            if (owners_list[i] == owner) break;\r\n        }\r\n        if (i == owners_list.length) return false;\r\n        return true;\r\n    }\r\n\r\n    function _validMovie(uint256 id) private view returns(bool){\r\n        if (file_to_owner[id] == address(0)) return false;\r\n        return true;\r\n    }    \r\n\r\n    function _validAmount(uint256 id, uint256 weiAmount) private view returns(bool){\r\n        file movieFile = files_list[file_to_index[id]];\r\n        if (weiAmount < movieFile.price) return false;\r\n        return true;\r\n    }\r\n\r\n    function _createMovieToken(address sender, uint256 id, string ownerPkey) private {\r\n        movietoken memory token;\r\n        movieTokenCounter++;\r\n        token.id = movieTokenCounter;\r\n        file movieFile = files_list[file_to_index[id]];\r\n        movieFile.downloads ++;\r\n        token.movie = movieFile;\r\n        token.ownerPkey = ownerPkey;\r\n        movieTokens_list.push(token);\r\n        movietoken_to_owner[token.id] = sender;\r\n        movietoken_to_index[token.id] = movieTokens_list.length - 1;\r\n    }    \r\n\r\n    function _forwardFunds(uint256 id) private {\r\n        file_to_owner[id].transfer(msg.value);\r\n    }\r\n     \r\n}\r\n",
  "sourcePath": "D:\\ÉTS 2017-2018\\Fall session 2018\\INSE6630\\Project\\Decentralized_Movie_Publish\\contracts\\movie_publish.sol",
  "compiler": {
    "name": "solc",
    "version": "0.4.24+commit.e67f0147.Emscripten.clang"
  },
  "schemaVersion": "2.0.1",
  "updatedAt": "2018-12-01T23:14:32.668Z"
}