{
  "contractName": "movie_publish",
  "abi": [
    {
      "anonymous": false,
      "inputs": [
        {
          "indexed": false,
          "name": "sender",
          "type": "address"
        },
        {
          "indexed": false,
          "name": "movieOwner",
          "type": "address"
        }
      ],
      "name": "MovieTokenPurchased",
      "type": "event"
    },
    {
      "anonymous": false,
      "inputs": [
        {
          "indexed": false,
          "name": "movieName",
          "type": "string"
        },
        {
          "indexed": false,
          "name": "tokenOwner",
          "type": "address"
        },
        {
          "indexed": false,
          "name": "movieHash",
          "type": "string"
        }
      ],
      "name": "HashReadyToPublish",
      "type": "event"
    },
    {
      "constant": false,
      "inputs": [
        {
          "name": "id",
          "type": "uint256"
        },
        {
          "name": "_ownerPkey",
          "type": "string"
        }
      ],
      "name": "buyMovieToken",
      "outputs": [],
      "payable": true,
      "stateMutability": "payable",
      "type": "function"
    },
    {
      "constant": false,
      "inputs": [
        {
          "name": "_name",
          "type": "string"
        },
        {
          "name": "_link",
          "type": "string"
        },
        {
          "name": "_price",
          "type": "uint256"
        }
      ],
      "name": "createMovie",
      "outputs": [],
      "payable": false,
      "stateMutability": "nonpayable",
      "type": "function"
    },
    {
      "constant": false,
      "inputs": [
        {
          "name": "_id",
          "type": "uint256"
        },
        {
          "name": "_hash",
          "type": "string"
        }
      ],
      "name": "addHashToMovieToken",
      "outputs": [],
      "payable": false,
      "stateMutability": "nonpayable",
      "type": "function"
    },
    {
      "constant": true,
      "inputs": [],
      "name": "getMovieList",
      "outputs": [
        {
          "components": [
            {
              "name": "id",
              "type": "uint256"
            },
            {
              "name": "name",
              "type": "string"
            },
            {
              "name": "link",
              "type": "string"
            },
            {
              "name": "price",
              "type": "uint256"
            }
          ],
          "name": "",
          "type": "tuple[]"
        }
      ],
      "payable": false,
      "stateMutability": "view",
      "type": "function"
    },
    {
      "constant": true,
      "inputs": [
        {
          "name": "id",
          "type": "uint256"
        }
      ],
      "name": "getMovieDetails",
      "outputs": [
        {
          "components": [
            {
              "name": "id",
              "type": "uint256"
            },
            {
              "name": "name",
              "type": "string"
            },
            {
              "name": "link",
              "type": "string"
            },
            {
              "name": "price",
              "type": "uint256"
            }
          ],
          "name": "",
          "type": "tuple"
        }
      ],
      "payable": false,
      "stateMutability": "view",
      "type": "function"
    }
  ],
  "bytecode": "0x608060405234801561001057600080fd5b50611484806100206000396000f30060806040526004361061006d576000357c0100000000000000000000000000000000000000000000000000000000900463ffffffff1680632c7b2de41461007257806357a3106b1461009b5780635c7b14c1146100b7578063c0a380ea146100f4578063c3a123c61461011f575b600080fd5b34801561007e57600080fd5b5061009960048036036100949190810190610fc5565b610148565b005b6100b560048036036100b09190810190610fc5565b61022a565b005b3480156100c357600080fd5b506100de60048036036100d99190810190610f9c565b6102d3565b6040516100eb91906112fb565b60405180910390f35b34801561010057600080fd5b5061010961047c565b6040516101169190611294565b60405180910390f35b34801561012b57600080fd5b5061014660048036036101419190810190610f1d565b610634565b005b6000600860008481526020019081526020016000205490508160048281548110151561017057fe5b90600052602060002090600702016006019080519060200190610194929190610d0d565b507f077cf14e51d327ccdb8fbb8113548108e70fb3b042be8bf19b1efb61b95a61b46004828154811015156101c557fe5b90600052602060002090600702016001016001016009600086815260200190815260200160002060009054906101000a900473ffffffffffffffffffffffffffffffffffffffff168460405161021d939291906112b6565b60405180910390a1505050565b6000349050610238836107eb565b15610262576102478382610867565b15610261576102573384846108bd565b61026083610bdb565b5b5b7fc0550d2258d4142b9c947baf9e4748dc318d5ac1ed092d252f34cd0547e2e072336005600086815260200190815260200160002060009054906101000a900473ffffffffffffffffffffffffffffffffffffffff166040516102c692919061126b565b60405180910390a1505050565b6102db610d8d565b60006006600084815260200190815260200160002054905060038181548110151561030257fe5b90600052602060002090600402016080604051908101604052908160008201548152602001600182018054600181600116156101000203166002900480601f0160208091040260200160405190810160405280929190818152602001828054600181600116156101000203166002900480156103bf5780601f10610394576101008083540402835291602001916103bf565b820191906000526020600020905b8154815290600101906020018083116103a257829003601f168201915b50505050508152602001600282018054600181600116156101000203166002900480601f0160208091040260200160405190810160405280929190818152602001828054600181600116156101000203166002900480156104615780601f1061043657610100808354040283529160200191610461565b820191906000526020600020905b81548152906001019060200180831161044457829003601f168201915b50505050508152602001600382015481525050915050919050565b60606003805480602002602001604051908101604052809291908181526020016000905b8282101561062b57838290600052602060002090600402016080604051908101604052908160008201548152602001600182018054600181600116156101000203166002900480601f0160208091040260200160405190810160405280929190818152602001828054600181600116156101000203166002900480156105675780601f1061053c57610100808354040283529160200191610567565b820191906000526020600020905b81548152906001019060200180831161054a57829003601f168201915b50505050508152602001600282018054600181600116156101000203166002900480601f0160208091040260200160405190810160405280929190818152602001828054600181600116156101000203166002900480156106095780601f106105de57610100808354040283529160200191610609565b820191906000526020600020905b8154815290600101906020018083116105ec57829003601f168201915b50505050508152602001600382015481525050815260200190600101906104a0565b50505050905090565b61063c610d8d565b61064533610c58565b15156106b25760023390806001815401808255809150509060018203906000526020600020016000909192909190916101000a81548173ffffffffffffffffffffffffffffffffffffffff021916908373ffffffffffffffffffffffffffffffffffffffff160217905550505b6001600081548092919060010191905055506001548160000181815250508381602001819052508281604001819052508181606001818152505060038190806001815401808255809150509060018203906000526020600020906004020160009091929091909150600082015181600001556020820151816001019080519060200190610740929190610db6565b50604082015181600201908051906020019061075d929190610db6565b506060820151816003015550505060016003805490500360066000836000015181526020019081526020016000208190555033600560008360000151815260200190815260200160002060006101000a81548173ffffffffffffffffffffffffffffffffffffffff021916908373ffffffffffffffffffffffffffffffffffffffff16021790555050505050565b60008073ffffffffffffffffffffffffffffffffffffffff166005600084815260200190815260200160002060009054906101000a900473ffffffffffffffffffffffffffffffffffffffff1673ffffffffffffffffffffffffffffffffffffffff16141561085d5760009050610862565b600190505b919050565b6000806003600660008681526020019081526020016000205481548110151561088c57fe5b9060005260206000209060040201905080600301548310156108b157600091506108b6565b600191505b5092915050565b6108c5610e36565b600080600081548092919060010191905055506000548260000181815250506003600660008681526020019081526020016000205481548110151561090657fe5b90600052602060002090600402019050806080604051908101604052908160008201548152602001600182018054600181600116156101000203166002900480601f0160208091040260200160405190810160405280929190818152602001828054600181600116156101000203166002900480156109c65780601f1061099b576101008083540402835291602001916109c6565b820191906000526020600020905b8154815290600101906020018083116109a957829003601f168201915b50505050508152602001600282018054600181600116156101000203166002900480601f016020809104026020016040519081016040528092919081815260200182805460018160011615610100020316600290048015610a685780601f10610a3d57610100808354040283529160200191610a68565b820191906000526020600020905b815481529060010190602001808311610a4b57829003601f168201915b5050505050815260200160038201548152505082602001819052508282604001819052506004829080600181540180825580915050906001820390600052602060002090600702016000909192909190915060008201518160000155602082015181600101600082015181600001556020820151816001019080519060200190610af3929190610db6565b506040820151816002019080519060200190610b10929190610db6565b506060820151816003015550506040820151816005019080519060200190610b39929190610db6565b506060820151816006019080519060200190610b56929190610db6565b5050505084600960008460000151815260200190815260200160002060006101000a81548173ffffffffffffffffffffffffffffffffffffffff021916908373ffffffffffffffffffffffffffffffffffffffff1602179055506001600480549050036008600084600001518152602001908152602001600020819055505050505050565b6005600082815260200190815260200160002060009054906101000a900473ffffffffffffffffffffffffffffffffffffffff1673ffffffffffffffffffffffffffffffffffffffff166108fc349081150290604051600060405180830381858888f19350505050158015610c54573d6000803e3d6000fd5b5050565b600080600090505b600280549050811015610cec578273ffffffffffffffffffffffffffffffffffffffff16600282815481101515610c9357fe5b9060005260206000200160009054906101000a900473ffffffffffffffffffffffffffffffffffffffff1673ffffffffffffffffffffffffffffffffffffffff161415610cdf57610cec565b8080600101915050610c60565b600280549050811415610d025760009150610d07565b600191505b50919050565b828054600181600116156101000203166002900490600052602060002090601f016020900481019282601f10610d4e57805160ff1916838001178555610d7c565b82800160010185558215610d7c579182015b82811115610d7b578251825591602001919060010190610d60565b5b509050610d899190610e65565b5090565b608060405190810160405280600081526020016060815260200160608152602001600081525090565b828054600181600116156101000203166002900490600052602060002090601f016020900481019282601f10610df757805160ff1916838001178555610e25565b82800160010185558215610e25579182015b82811115610e24578251825591602001919060010190610e09565b5b509050610e329190610e65565b5090565b60e06040519081016040528060008152602001610e51610e8a565b815260200160608152602001606081525090565b610e8791905b80821115610e83576000816000905550600101610e6b565b5090565b90565b608060405190810160405280600081526020016060815260200160608152602001600081525090565b600082601f8301121515610ec657600080fd5b8135610ed9610ed48261134a565b61131d565b91508082526020830160208301858383011115610ef557600080fd5b610f008382846113f7565b50505092915050565b6000610f1582356113ed565b905092915050565b600080600060608486031215610f3257600080fd5b600084013567ffffffffffffffff811115610f4c57600080fd5b610f5886828701610eb3565b935050602084013567ffffffffffffffff811115610f7557600080fd5b610f8186828701610eb3565b9250506040610f9286828701610f09565b9150509250925092565b600060208284031215610fae57600080fd5b6000610fbc84828501610f09565b91505092915050565b60008060408385031215610fd857600080fd5b6000610fe685828601610f09565b925050602083013567ffffffffffffffff81111561100357600080fd5b61100f85828601610eb3565b9150509250929050565b611022816113c3565b82525050565b600061103382611395565b8084526020840193508360208202850161104c85611376565b60005b848110156110855783830388526110678383516111f2565b9250611072826113b6565b915060208801975060018101905061104f565b508196508694505050505092915050565b60006110a1826113ab565b8084526110b5816020860160208601611406565b6110be81611439565b602085010191505092915050565b60006110d7826113a0565b8084526110eb816020860160208601611406565b6110f481611439565b602085010191505092915050565b60008154600181166000811461111f576001811461113f57611180565b607f600283041680865260ff198316602087015260408601935050611180565b6002820480865260208601955061115585611383565b60005b8281101561117757815481890152600182019150602081019050611158565b80880195505050505b505092915050565b60006080830160008301516111a0600086018261125c565b50602083015184820360208601526111b882826110cc565b915050604083015184820360408601526111d282826110cc565b91505060608301516111e7606086018261125c565b508091505092915050565b600060808301600083015161120a600086018261125c565b506020830151848203602086015261122282826110cc565b9150506040830151848203604086015261123c82826110cc565b9150506060830151611251606086018261125c565b508091505092915050565b611265816113e3565b82525050565b60006040820190506112806000830185611019565b61128d6020830184611019565b9392505050565b600060208201905081810360008301526112ae8184611028565b905092915050565b600060608201905081810360008301526112d08186611102565b90506112df6020830185611019565b81810360408301526112f18184611096565b9050949350505050565b600060208201905081810360008301526113158184611188565b905092915050565b6000604051905081810181811067ffffffffffffffff8211171561134057600080fd5b8060405250919050565b600067ffffffffffffffff82111561136157600080fd5b601f19601f8301169050602081019050919050565b6000602082019050919050565b60008160005260206000209050919050565b600081519050919050565b600081519050919050565b600081519050919050565b6000602082019050919050565b600073ffffffffffffffffffffffffffffffffffffffff82169050919050565b6000819050919050565b6000819050919050565b82818337600083830152505050565b60005b83811015611424578082015181840152602081019050611409565b83811115611433576000848401525b50505050565b6000601f19601f83011690509190505600a265627a7a723058204f28f8b3b37517c2240af2238487bd5164820ef29c19f4d4876ad5613f1c55ba6c6578706572696d656e74616cf50037",
  "source": "//solium-disable linebreak-style\r\npragma solidity ^0.4.23;\r\npragma experimental ABIEncoderV2;\r\n\r\ncontract movie_publish {\r\n    uint256 movieTokenCounter;\r\n    uint256 movieCounter; \r\n    address[] owners_list;\r\n    struct file {\r\n        uint256 id;\r\n        string name;\r\n        string link;\r\n        uint256 price;\r\n    }\r\n    struct movietoken{\r\n        uint256 id;\r\n        file movie;\r\n        string ownerPkey;\r\n        string movieHash;\r\n    }\r\n    file[] files_list;\r\n    movietoken[] movieTokens_list;\r\n    mapping (uint256 => address) file_to_owner;\r\n    mapping (uint256 => uint) file_to_index;\r\n    mapping (address => uint) owner_to_index;\r\n    mapping (uint256 => uint) movietoken_to_index;\r\n    mapping (uint256 => address) movietoken_to_owner;\r\n\r\n    //events\r\n    event MovieTokenPurchased(address sender, address movieOwner);\r\n    event HashReadyToPublish (string movieName, address tokenOwner, string movieHash);\r\n\r\n    function buyMovieToken(uint256 id, string _ownerPkey) public payable{\r\n        uint256 weiAmount = msg.value;\r\n        if (_validMovie(id)){\r\n            if(_validAmount(id, weiAmount)){\r\n                _createMovieToken(msg.sender, id, _ownerPkey);\r\n                _forwardFunds(id);\r\n            }\r\n        }\r\n        emit MovieTokenPurchased(msg.sender, file_to_owner[id]);\r\n    }\r\n\r\n    function createMovie(string _name, string _link, uint256 _price) public {\r\n        if (!_exist(msg.sender)) owners_list.push(msg.sender);\r\n        file memory movie;\r\n        movieCounter++;\r\n        movie.id = movieCounter;\r\n        movie.name = _name;\r\n        movie.link = _link;\r\n        movie.price = _price;\r\n        files_list.push(movie);\r\n        file_to_index[movie.id] = files_list.length-1;\r\n        file_to_owner[movie.id] = msg.sender;\r\n\r\n    }\r\n\r\n    function addHashToMovieToken (uint256 _id, string _hash) public {\r\n        uint index = movietoken_to_index[_id];\r\n        movieTokens_list[index].movieHash = _hash;\r\n        emit HashReadyToPublish(\r\n            movieTokens_list[index].movie.name,\r\n            movietoken_to_owner[_id],\r\n            _hash\r\n        );\r\n    }\r\n\r\n    function getMovieList () public view returns (file[]){\r\n        return files_list;\r\n    }\r\n\r\n    function getMovieDetails (uint256 id) public view returns (file){\r\n        uint index = file_to_index[id];\r\n        return files_list[index];\r\n    }\r\n\r\n    function _exist(address owner) private view returns(bool) { \r\n        for (uint i = 0; i < owners_list.length; i++){\r\n            if (owners_list[i] == owner) break;\r\n        }\r\n        if (i == owners_list.length) return false;\r\n        return true;\r\n    }\r\n\r\n    function _validMovie(uint256 id) private view returns(bool){\r\n        if (file_to_owner[id] == address(0)) return false;\r\n        return true;\r\n    }    \r\n\r\n    function _validAmount(uint256 id, uint256 weiAmount) private view returns(bool){\r\n        file movieFile = files_list[file_to_index[id]];\r\n        if (weiAmount < movieFile.price) return false;\r\n        return true;\r\n    }\r\n\r\n    function _createMovieToken(address sender, uint256 id, string ownerPkey) private {\r\n        movietoken memory token;\r\n        movieTokenCounter++;\r\n        token.id = movieTokenCounter;\r\n        file movieFile = files_list[file_to_index[id]];\r\n        token.movie = movieFile;\r\n        token.ownerPkey = ownerPkey;\r\n        movieTokens_list.push(token);\r\n        movietoken_to_owner[token.id] = sender;\r\n        movietoken_to_index[token.id] = movieTokens_list.length - 1;\r\n    }    \r\n\r\n    function _forwardFunds(uint256 id) private {\r\n        file_to_owner[id].transfer(msg.value);\r\n    }\r\n     \r\n\r\n\r\n}\r\n",
  "sourcePath": "D:\\ÉTS 2017-2018\\Fall session 2018\\INSE6630\\Project\\Decentralized_Movie_Publish\\contracts\\movie_publish.sol",
  "compiler": {
    "name": "solc",
    "version": "0.4.24+commit.e67f0147.Emscripten.clang"
  },
  "schemaVersion": "2.0.1",
  "updatedAt": "2018-11-17T16:43:27.697Z"
}